{
  "contractName": "TreasureboxOrders",
  "abi": [
    {
      "inputs": [],
      "stateMutability": "nonpayable",
      "type": "constructor"
    },
    {
      "inputs": [],
      "name": "owner",
      "outputs": [
        {
          "internalType": "address",
          "name": "",
          "type": "address"
        }
      ],
      "stateMutability": "view",
      "type": "function",
      "constant": true
    },
    {
      "inputs": [
        {
          "internalType": "string",
          "name": "category",
          "type": "string"
        },
        {
          "internalType": "string",
          "name": "name",
          "type": "string"
        },
        {
          "internalType": "string",
          "name": "shipping",
          "type": "string"
        },
        {
          "internalType": "uint256",
          "name": "price",
          "type": "uint256"
        },
        {
          "internalType": "address payable",
          "name": "seller",
          "type": "address"
        }
      ],
      "name": "makeOrder",
      "outputs": [],
      "stateMutability": "payable",
      "type": "function",
      "payable": true
    },
    {
      "inputs": [
        {
          "internalType": "address",
          "name": "seller",
          "type": "address"
        }
      ],
      "name": "retrieveOrderHistory",
      "outputs": [
        {
          "internalType": "string[]",
          "name": "",
          "type": "string[]"
        },
        {
          "internalType": "string[]",
          "name": "",
          "type": "string[]"
        },
        {
          "internalType": "string[]",
          "name": "",
          "type": "string[]"
        },
        {
          "internalType": "uint256[]",
          "name": "",
          "type": "uint256[]"
        },
        {
          "internalType": "address[]",
          "name": "",
          "type": "address[]"
        },
        {
          "internalType": "address[]",
          "name": "",
          "type": "address[]"
        }
      ],
      "stateMutability": "view",
      "type": "function",
      "constant": true
    }
  ],
  "bytecode": "0x608060405234801561001057600080fd5b50336000806101000a81548173ffffffffffffffffffffffffffffffffffffffff021916908373ffffffffffffffffffffffffffffffffffffffff160217905550611084806100606000396000f3fe6080604052600436106100345760003560e01c806383e9e28f146100395780638da5cb5b14610055578063c108024414610080575b600080fd5b610053600480360381019061004e9190610b08565b6100c2565b005b34801561006157600080fd5b5061006a610420565b6040516100779190610da2565b60405180910390f35b34801561008c57600080fd5b506100a760048036038101906100a29190610adf565b610445565b6040516100b996959493929190610dbd565b60405180910390f35b600160008273ffffffffffffffffffffffffffffffffffffffff1673ffffffffffffffffffffffffffffffffffffffff16815260200190815260200160002060000160009054906101000a900460ff1661019c5760405180604001604052806001151581526020016000815250600160008373ffffffffffffffffffffffffffffffffffffffff1673ffffffffffffffffffffffffffffffffffffffff16815260200190815260200160002060008201518160000160006101000a81548160ff021916908315150217905550602082015181600101559050505b6000600160008373ffffffffffffffffffffffffffffffffffffffff1673ffffffffffffffffffffffffffffffffffffffff1681526020019081526020016000206001015490506040518060c001604052808781526020018681526020018581526020018481526020013373ffffffffffffffffffffffffffffffffffffffff1681526020018373ffffffffffffffffffffffffffffffffffffffff16815250600160008473ffffffffffffffffffffffffffffffffffffffff1673ffffffffffffffffffffffffffffffffffffffff168152602001908152602001600020600201600083815260200190815260200160002060008201518160000190805190602001906102ab9291906109a7565b5060208201518160010190805190602001906102c89291906109a7565b5060408201518160020190805190602001906102e59291906109a7565b506060820151816003015560808201518160040160006101000a81548173ffffffffffffffffffffffffffffffffffffffff021916908373ffffffffffffffffffffffffffffffffffffffff16021790555060a08201518160050160006101000a81548173ffffffffffffffffffffffffffffffffffffffff021916908373ffffffffffffffffffffffffffffffffffffffff16021790555090505060018060008473ffffffffffffffffffffffffffffffffffffffff1673ffffffffffffffffffffffffffffffffffffffff168152602001908152602001600020600101600082825401925050819055508173ffffffffffffffffffffffffffffffffffffffff166108fc849081150290604051600060405180830381858888f19350505050158015610417573d6000803e3d6000fd5b50505050505050565b6000809054906101000a900473ffffffffffffffffffffffffffffffffffffffff1681565b6060806060806060806000600160008973ffffffffffffffffffffffffffffffffffffffff1673ffffffffffffffffffffffffffffffffffffffff16815260200190815260200160002090506000816001015490506060816040519080825280602002602001820160405280156104d057816020015b60608152602001906001900390816104bb5790505b50905060608260405190808252806020026020018201604052801561050957816020015b60608152602001906001900390816104f45790505b50905060608360405190808252806020026020018201604052801561054257816020015b606081526020019060019003908161052d5790505b5090506060846040519080825280602002602001820160405280156105765781602001602082028036833780820191505090505b5090506060856040519080825280602002602001820160405280156105aa5781602001602082028036833780820191505090505b5090506060866040519080825280602002602001820160405280156105de5781602001602082028036833780820191505090505b50905060008090505b87811015610983578860020160008281526020019081526020016000206000018054600181600116156101000203166002900480601f01602080910402602001604051908101604052809291908181526020018280546001816001161561010002031660029004801561069b5780601f106106705761010080835404028352916020019161069b565b820191906000526020600020905b81548152906001019060200180831161067e57829003601f168201915b50505050508782815181106106ac57fe5b60200260200101819052508860020160008281526020019081526020016000206001018054600181600116156101000203166002900480601f0160208091040260200160405190810160405280929190818152602001828054600181600116156101000203166002900480156107635780601f1061073857610100808354040283529160200191610763565b820191906000526020600020905b81548152906001019060200180831161074657829003601f168201915b505050505086828151811061077457fe5b60200260200101819052508860020160008281526020019081526020016000206002018054600181600116156101000203166002900480601f01602080910402602001604051908101604052809291908181526020018280546001816001161561010002031660029004801561082b5780601f106108005761010080835404028352916020019161082b565b820191906000526020600020905b81548152906001019060200180831161080e57829003601f168201915b505050505085828151811061083c57fe5b60200260200101819052508860020160008281526020019081526020016000206003015484828151811061086c57fe5b60200260200101818152505088600201600082815260200190815260200160002060040160009054906101000a900473ffffffffffffffffffffffffffffffffffffffff168382815181106108bd57fe5b602002602001019073ffffffffffffffffffffffffffffffffffffffff16908173ffffffffffffffffffffffffffffffffffffffff168152505088600201600082815260200190815260200160002060050160009054906101000a900473ffffffffffffffffffffffffffffffffffffffff1682828151811061093c57fe5b602002602001019073ffffffffffffffffffffffffffffffffffffffff16908173ffffffffffffffffffffffffffffffffffffffff168152505080806001019150506105e7565b508585858585859d509d509d509d509d509d50505050505050505091939550919395565b828054600181600116156101000203166002900490600052602060002090601f016020900481019282601f106109e857805160ff1916838001178555610a16565b82800160010185558215610a16579182015b82811115610a155782518255916020019190600101906109fa565b5b509050610a239190610a27565b5090565b610a4991905b80821115610a45576000816000905550600101610a2d565b5090565b90565b600081359050610a5b81611009565b92915050565b600081359050610a7081611020565b92915050565b600082601f830112610a8757600080fd5b8135610a9a610a9582610e75565b610e48565b91508082526020830160208301858383011115610ab657600080fd5b610ac1838284610fb6565b50505092915050565b600081359050610ad981611037565b92915050565b600060208284031215610af157600080fd5b6000610aff84828501610a4c565b91505092915050565b600080600080600060a08688031215610b2057600080fd5b600086013567ffffffffffffffff811115610b3a57600080fd5b610b4688828901610a76565b955050602086013567ffffffffffffffff811115610b6357600080fd5b610b6f88828901610a76565b945050604086013567ffffffffffffffff811115610b8c57600080fd5b610b9888828901610a76565b9350506060610ba988828901610aca565b9250506080610bba88828901610a61565b9150509295509295909350565b6000610bd38383610c0b565b60208301905092915050565b6000610beb8383610d5a565b905092915050565b6000610bff8383610d93565b60208301905092915050565b610c1481610f68565b82525050565b610c2381610f68565b82525050565b6000610c3482610ed1565b610c3e8185610f24565b9350610c4983610ea1565b8060005b83811015610c7a578151610c618882610bc7565b9750610c6c83610efd565b925050600181019050610c4d565b5085935050505092915050565b6000610c9282610edc565b610c9c8185610f35565b935083602082028501610cae85610eb1565b8060005b85811015610cea5784840389528151610ccb8582610bdf565b9450610cd683610f0a565b925060208a01995050600181019050610cb2565b50829750879550505050505092915050565b6000610d0782610ee7565b610d118185610f46565b9350610d1c83610ec1565b8060005b83811015610d4d578151610d348882610bf3565b9750610d3f83610f17565b925050600181019050610d20565b5085935050505092915050565b6000610d6582610ef2565b610d6f8185610f57565b9350610d7f818560208601610fc5565b610d8881610ff8565b840191505092915050565b610d9c81610fac565b82525050565b6000602082019050610db76000830184610c1a565b92915050565b600060c0820190508181036000830152610dd78189610c87565b90508181036020830152610deb8188610c87565b90508181036040830152610dff8187610c87565b90508181036060830152610e138186610cfc565b90508181036080830152610e278185610c29565b905081810360a0830152610e3b8184610c29565b9050979650505050505050565b6000604051905081810181811067ffffffffffffffff82111715610e6b57600080fd5b8060405250919050565b600067ffffffffffffffff821115610e8c57600080fd5b601f19601f8301169050602081019050919050565b6000819050602082019050919050565b6000819050602082019050919050565b6000819050602082019050919050565b600081519050919050565b600081519050919050565b600081519050919050565b600081519050919050565b6000602082019050919050565b6000602082019050919050565b6000602082019050919050565b600082825260208201905092915050565b600082825260208201905092915050565b600082825260208201905092915050565b600082825260208201905092915050565b6000610f7382610f8c565b9050919050565b6000610f8582610f8c565b9050919050565b600073ffffffffffffffffffffffffffffffffffffffff82169050919050565b6000819050919050565b82818337600083830152505050565b60005b83811015610fe3578082015181840152602081019050610fc8565b83811115610ff2576000848401525b50505050565b6000601f19601f8301169050919050565b61101281610f68565b811461101d57600080fd5b50565b61102981610f7a565b811461103457600080fd5b50565b61104081610fac565b811461104b57600080fd5b5056fea264697066735822122014e653a80789959187e1ce2bb73ed17534e35a70dabe41f104565a2abda154a264736f6c63430006040033",
  "source": "pragma solidity 0.6.4;\npragma experimental ABIEncoderV2;\n\ncontract TreasureboxOrders {\n    address public owner;\n    mapping(address => OrderHistory) internal orderHistory;\n\n    struct Order {\n        string category;\n        string name;\n        string shipping;\n        uint256 price;\n        address buyer;\n        address seller;\n    }\n\n    struct OrderHistory {\n        bool exists;\n        uint256 orderCount;\n        mapping(uint256 => Order) orders;\n    }\n\n    function makeOrder(\n        string memory category,\n        string memory name,\n        string memory shipping,\n        uint256 price,\n        address payable seller\n    ) public payable {\n        if (!orderHistory[seller].exists) {\n            orderHistory[seller] = OrderHistory ({\n                exists : true,\n                orderCount : 0\n            });\n        }\n        uint256 orderIndex = orderHistory[seller].orderCount;\n        orderHistory[seller].orders[orderIndex] = Order ({\n            category : category,\n            name : name,\n            shipping : shipping,\n            price : price,\n            buyer : msg.sender,\n            seller : seller\n        });\n        orderHistory[seller].orderCount += 1;\n\n        seller.transfer(price);\n    }\n\n    function retrieveOrderHistory(address seller) public view returns (\n        string[] memory,\n        string[] memory,\n        string[] memory,\n        uint256[] memory,\n        address[] memory,\n        address[] memory\n        ) {\n        OrderHistory storage history = orderHistory[seller];\n        uint256 count = history.orderCount;\n        string[] memory categoryArray = new string[](count);\n        string[] memory nameArray = new string[](count);\n        string[] memory shippingArray = new string[](count);\n        uint256[] memory priceArray = new uint256[](count);\n        address[] memory buyerArray = new address[](count);\n        address[] memory sellerArray = new address[](count);\n        \n        for (uint256 i = 0; i < count; i++) {\n            categoryArray[i] = history.orders[i].category;\n            nameArray[i] = history.orders[i].name;\n            shippingArray[i] = history.orders[i].shipping;\n            priceArray[i] = history.orders[i].price;\n            buyerArray[i] = history.orders[i].buyer;\n            sellerArray[i] = history.orders[i].seller;\n        }\n        \n        return (categoryArray, nameArray, shippingArray, priceArray, buyerArray, sellerArray);\n    }\n\n    constructor() public {\n        owner = msg.sender;\n    }\n\n}",
  "sourcePath": "/Users/yuhan/Desktop/2021Spring/CloudComputing/project2/TreasureBox/blockchain/contracts/TreasureboxOrders.sol",
  "compiler": {
    "name": "solc",
    "version": "0.6.4+commit.1dca32f3.Emscripten.clang"
  },
  "schemaVersion": "3.3.4",
  "updatedAt": "2021-05-14T00:09:24.715Z",
  "networkType": "ethereum",
  "devdoc": {
    "methods": {}
  },
  "userdoc": {
    "methods": {}
  }
}